:100000000C9462000C948A000C948A000C948A0070
:100010000C948A000C948A000C948A000C948A0038
:100020000C948A000C948A000C948A000C948A0028
:100030000C948A000C948A000C948A000C948A0018
:100040000C946B020C948A000C9439020C941302E9
:100050000C948A000C948A000C948A000C948A00F8
:100060000C948A000C948A000000000024002700F1
:100070002A000000000023002600290000000000E4
:10008000250028002B0004040404040404040202D4
:100090000202020203030303030301020408102007
:1000A0004080010204081020010204081020000012
:1000B0000008000201000003040700000000000027
:1000C0000000850411241FBECFEFD8E0DEBFCDBFF6
:1000D00011E0A0E0B1E0EAE1FCE002C005900D9281
:1000E000A232B107D9F721E0A2E2B1E001C01D922E
:1000F000AA3CB207E1F710E0C2E6D0E004C02197C5
:10010000FE010E940506C136D107C9F70E94FA0216
:100110000C940B060C940000E1EBF0E02491EDE967
:10012000F0E09491E9E8F0E0E491EE23C9F02223B5
:1001300039F0233001F1A8F4213019F1223029F1EE
:10014000F0E0EE0FFF1FE458FF4FA591B4912FB7D9
:10015000F894EC91811126C090959E239C932FBF1B
:1001600008952730A9F02830C9F0243049F72091AC
:1001700080002F7D03C0209180002F772093800086
:10018000DFCF24B52F7724BDDBCF24B52F7DFBCF68
:100190002091B0002F772093B000D2CF2091B000F3
:1001A0002F7DF9CF9E2BDACFAF92BF92CF92DF9205
:1001B000EF92FF920F931F93CF93DF936C017B011C
:1001C0008B01040F151FEB015E01AE18BF08C017AD
:1001D000D10759F06991D601ED91FC910190F08120
:1001E000E02DC6010995892B79F7C501DF91CF91E3
:1001F0001F910F91FF90EF90DF90CF90BF90AF9045
:100200000895FC01538D448D252F30E0842F90E01C
:10021000821B930B541710F0CF9608950197089501
:10022000FC01918D828D981761F0A28DAE0FBF2FCA
:10023000B11D5D968C91928D9F5F9F73928F90E020
:1002400008958FEF9FEF0895FC01918D828D98178F
:1002500031F0828DE80FF11D858D90E008958FEFCC
:100260009FEF0895FC01918D228D892F90E0805C95
:100270009F4F821B91098F73992708958DE291E01A
:100280000E94320121E0892B09F420E0822F089599
:1002900080E090E0892B29F00E943E0181110C94AE
:1002A00000000895FC01A48DA80FB92FB11DA35A19
:1002B000BF4F2C91848D90E001968F739927848F86
:1002C000A689B7892C93A089B1898C9183708064A9
:1002D0008C93938D848D981306C00288F389E02D4A
:1002E00080818F7D80830895EF92FF920F931F93FB
:1002F000CF93DF93EC0181E0888F9B8D8C8D9813D9
:100300001AC0E889F989808185FF15C09FB7F894E4
:10031000EE89FF896083E889F98980818370806430
:1003200080839FBF81E090E0DF91CF911F910F917B
:10033000FF90EF900895F62E0B8D10E00F5F1F4F8A
:100340000F731127E02E8C8D8E110CC00FB607FC99
:10035000FACFE889F989808185FFF5CFCE010E9427
:100360005201F1CFEB8DEC0FFD2FF11DE35AFF4F42
:10037000F0829FB7F8940B8FEA89FB8980818062B5
:10038000CFCFCF93DF93EC01888D8823B9F0AA8972
:10039000BB89E889F9898C9185FD03C0808186FD40
:1003A0000DC00FB607FCF7CF8C9185FFF2CF80818F
:1003B00085FFEDCFCE010E945201E9CFDF91CF91B1
:1003C00008953FB7F8948091270190912801A0915A
:1003D0002901B0912A0126B5A89B05C02F3F19F02D
:1003E0000196A11DB11D3FBFBA2FA92F982F8827B5
:1003F000BC01CD01620F711D811D911D42E0660F90
:10040000771F881F991F4A95D1F70895FC01019025
:100410000020E9F73197AF01481B590BBC018DE271
:1004200091E00C94D4001F920F920FB60F921124FA
:100430002F933F934F935F936F937F938F939F93EC
:10044000AF93BF93EF93FF938DE291E00E9452012F
:10045000FF91EF91BF91AF919F918F917F916F919C
:100460005F914F913F912F910F900FBE0F901F9072
:1004700018951F920F920FB60F9211242F938F93FE
:100480009F93EF93FF93E0913D01F0913E018081B6
:10049000E0914301F091440182FD1BC09081809165
:1004A00046018F5F8F7320914701821741F0E091E1
:1004B0004601F0E0E35DFE4F958F80934601FF918A
:1004C000EF919F918F912F910F900FBE0F901F90E2
:1004D00018958081F4CF1F920F920FB60F921124BE
:1004E0002F933F938F939F93AF93BF93809123015B
:1004F00090912401A0912501B09126013091220113
:1005000023E0230F2D3758F50196A11DB11D20932F
:1005100022018093230190932401A0932501B0939D
:1005200026018091270190912801A0912901B09185
:100530002A010196A11DB11D8093270190932801E6
:10054000A0932901B0932A01BF91AF919F918F9100
:100550003F912F910F900FBE0F901F90189526E896
:10056000230F0296A11DB11DD2CFCF92DF92EF9241
:10057000FF920F931F93E82FF92F05C00150110927
:100580002109310961F1908196239417B9F305C0CF
:10059000015011092109310911F190819623941319
:1005A000F7CFC12CD12CE12CF12C0AC08FEFC81A47
:1005B000D80AE80AF80A0C151D052E053F0579F042
:1005C00080818623841791F36C2D7D2D8E2D9F2D98
:1005D0001F910F91FF90EF90DF90CF90089560E012
:1005E00070E080E090E01F910F91FF90EF90DF901E
:1005F000CF900895CF93DF93CDB7DEB7A1970FB615
:10060000F894DEBF0FBECDBF789484B5826084BD00
:1006100084B5816084BD85B5826085BD85B5816006
:1006200085BD80916E00816080936E001092810084
:10063000809181008260809381008091810081603F
:100640008093810080918000816080938000809100
:10065000B10084608093B1008091B000816080938C
:10066000B00080917A00846080937A0080917A0053
:10067000826080937A0080917A00816080937A0012
:1006800080917A00806880937A001092C100E09196
:100690003D01F0913E0182E08083E0913901F091CB
:1006A0003A011082E0913B01F0913C018FEC808394
:1006B00010924501E0914101F091420186E0808372
:1006C000E0913F01F0914001808180618083E09161
:1006D0003F01F0914001808188608083E0913F017B
:1006E000F0914001808180688083E0913F01F0912A
:1006F000400180818F7D8083EDE9F0E02491E9E87D
:10070000F0E08491882399F090E0880F991FFC0114
:10071000E859FF4FA591B491FC01E458FF4F859132
:1007200094918FB7F894EC91E22BEC938FBFEEE9A4
:10073000F0E02491EAE8F0E084918823C9F090E0A9
:10074000880F991FFC01E859FF4FA591B491FC0156
:10075000E458FF4F459154913FB7F8949C91822FF4
:10076000809598239C93FA019081892380833FBFD1
:1007700023E0222E312C3AE0832E912CA12CB12C97
:1007800080E00E948C00C1010197F1F781E00E9496
:100790008C0083E290E00197F1F780E00E948C00EA
:1007A000EEE9F0E06491EAE8F0E08491E82FF0E00F
:1007B000EE0FFF1FEE58FF4F8591949100E412E475
:1007C0002FE030E0462F0E94B502611571058105CA
:1007D000910529F06F5F7F4F8F4F9F4F9F700E9451
:1007E000EA0426E933E44BE05DE30E944E0520E095
:1007F00030E040E05FE30E944E050E94B204709337
:100800002C0160932B0182E191E00E940602C090CE
:100810002B01D0902C010D2C000CEE08FF08F7FEE8
:100820005EC06DE28DE291E00E94740122273327C1
:10083000A9012C193D094E095F0919A2CE01819623
:100840007C01CA01B901A50194010E94E305605D24
:10085000F70162937F01211531054105510589F7A3
:10086000E114F10419F0C7010E9406028BE191E046
:100870000E9406028FE191E00E9406020E94E101BF
:100880002B013C0188ECC82ED12CE12CF12C0E94CC
:10089000E1016419750986099709683E734081056D
:1008A0009105A8F3F1E0CF1AD108E108F10828EE8C
:1008B000420E23E0521E611C711CC114D104E104DC
:1008C000F10429F780E090E0892B09F459CF0E94C8
:1008D0003E01882309F454CF0E94000051CFA701A4
:1008E000960119A2CE0181967C01CA01B901A50128
:1008F00094010E94E305605DF70162937F01211579
:1009000031054105510589F7ABCFEDE2F1E01382E6
:10091000128288EE93E0A0E0B0E084839583A68302
:10092000B78384E091E09183808385EC90E09587A4
:10093000848784EC90E09787868780EC90E0918BA9
:10094000808B81EC90E0938B828B82EC90E0958B96
:10095000848B86EC90E0978B868B118E128E138E93
:10096000148E08950E94B9046894B1110C9448053E
:1009700008950E942D0588F09F5798F0B92F992768
:10098000B751B0F0E1F0660F771F881F991F1AF07A
:10099000BA95C9F714C0B13091F00E944705B1E093
:1009A00008950C944705672F782F8827B85F39F092
:1009B000B93FCCF3869577956795B395D9F73EF413
:1009C00090958095709561957F4F8F4F9F4F0895BB
:1009D000E89409C097FB3EF49095809570956195D9
:1009E0007F4F8F4F9F4F9923A9F0F92F96E9BB278F
:1009F0009395F695879577956795B795F111F8CF0B
:100A0000FAF4BB0F11F460FF1BC06F5F7F4F8F4F75
:100A10009F4F16C0882311F096E911C0772321F06B
:100A20009EE8872F762F05C0662371F096E8862F03
:100A300070E060E02AF09A95660F771F881FDAF75A
:100A4000880F9695879597F9089557FD9058440F0C
:100A5000551F59F05F3F71F04795880F97FB991F1D
:100A600061F09F3F79F087950895121613061406DA
:100A7000551FF2CF4695F1DF08C016161706180667
:100A8000991FF1CF86957105610508940895E89442
:100A9000BB2766277727CB0197F908950E94610548
:100AA0000C94D2050E94C40538F00E94CB0520F0BA
:100AB000952311F00C94BB050C94C10511240C94E2
:100AC00048050E94250570F3959FC1F3950F50E0EE
:100AD000551F629FF001729FBB27F00DB11D639FF0
:100AE000AA27F00DB11DAA1F649F6627B00DA11D96
:100AF000661F829F2227B00DA11D621F739FB00D3C
:100B0000A11D621F839FA00D611D221F749F3327AB
:100B1000A00D611D231F849F600D211D822F762F44
:100B20006A2F11249F5750409AF0F1F088234AF021
:100B3000EE0FFF1FBB1F661F771F881F915050408D
:100B4000A9F79E3F510580F00C94BB050C94480515
:100B50005F3FE4F3983ED4F3869577956795B79514
:100B6000F795E7959F5FC1F7FE2B880F911D96952E
:100B7000879597F9089597F99F6780E870E060E09E
:100B800008959FEF80EC089500240A941616170626
:100B900018060906089500240A941216130614066E
:100BA00005060895092E0394000C11F4882352F0D1
:100BB000BB0F40F4BF2B11F460FF04C06F5F7F4F89
:100BC0008F4F9F4F0895A1E21A2EAA1BBB1BFD0158
:100BD0000DC0AA1FBB1FEE1FFF1FA217B307E4071C
:100BE000F50720F0A21BB30BE40BF50B661F771F74
:100BF000881F991F1A9469F7609570958095909554
:100C00009B01AC01BD01CF010895EE0FFF1F0590C0
:0A0C1000F491E02D0994F894FFCF51
:100C1A00000000007401D4000101C1013201100179
:100C2A0024014A6172616B203D200020636D000D32
:020C3A000A00AE
:00000001FF
