:020000040000FA
:100000000C94DB000C9403010C9403010C94030189
:100010000C9403010C9403010C9403010C94030150
:100020000C9403010C9403010C9403010C94030140
:100030000C9403010C9403010C9403010C94030130
:100040000C949F090C9403010C946D090C944709BE
:100050000C9403010C9403010C9403010C94030110
:100060000C9403010C9403016382536300010800A4
:100070000604000100000000240027002A00000000
:100080000000250028002B000404040404040404D8
:100090000202020202020303030303030102040833
:1000A00010204080010204081020010204081020E2
:1000B0000000000800020100000304070000000027
:1000C0000000000045000082000040002048545419
:1000D000502F312E3020353033204D79205365722A
:1000E00076696365200D0A436F6E74656E742D54D6
:1000F0007970653A20746578742F68746D6C0D0A98
:1001000052657472792D41667465723A20363030CA
:100110000D0A0D0A3C68746D6C3E3C686561643E76
:100120003C7469746C653E747567617320494F5403
:100130003C2F7469746C653E3C2F686561643E3C7D
:10014000626F64793E3C68333E4B686F6972756CD0
:10015000204469616E746F726F28563339323030C3
:100160003037293C2F68333E3C703E3C656D3E3154
:100170002D382D323030323C6272202F3E6B686F4A
:100180006972756C6D616261314073747564656E1E
:10019000742E756E732E61632E69643C2F656D3EFF
:1001A0003C2F703E3C2F626F64793E3C2F68746D2B
:1001B0006C3E00005D0E11241FBECFEFD8E0DEBF05
:1001C000CDBF11E0A0E0B1E0E8ECFDE102C0059098
:1001D0000D92A239B107D9F724E0A2E9B1E001C03C
:1001E0001D92A738B207E1F710E0CBEDD0E004C0D4
:1001F0002197FE010E94C00ECA3DD107C9F70E9497
:10020000E9090C94E20E0C940000CF93DF93209147
:10021000E6032223C1F0FC0120812223A1F0C6EED7
:10022000D3E0A2EEB3E09C012C5F3F4F8991419156
:100230009D918427892339F4E217F307B9F781E008
:10024000DF91CF91089580E0FBCFAF92BF92CF9224
:10025000DF92EF92FF920F931F93CF93DF936C0186
:100260007B018B01040F151FEB015E01AE18BF0867
:10027000C017D10759F06991D601ED91FC91019019
:10028000F081E02DC6010995892B79F7C501DF9131
:10029000CF911F910F91FF90EF90DF90CF90BF9083
:1002A000AF900895FC01538D448D252F30E0842FAD
:1002B00090E0821B930B541710F0CF96089501978E
:1002C0000895FC01918D828D981761F0A28DAE0F7B
:1002D000BF2FB11D5D968C91928D9F5F9F73928F02
:1002E00090E008958FEF9FEF0895FC01918D828D2E
:1002F000981731F0828DE80FF11D858D90E00895FB
:100300008FEF9FEF0895FC01918D228D892F90E052
:10031000805C9F4F821B91098F73992708958AEE05
:1003200093E00E94830121E0892B09F420E0822FD1
:10033000089580E090E0892B29F00E948F018111BF
:100340000C9400000895FC01A48DA80FB92FB11DD5
:10035000A35ABF4F2C91848D90E001968F739927FB
:10036000848FA689B7892C93A089B1898C918370D9
:1003700080648C93938D848D981306C00288F389D2
:10038000E02D80818F7D80830895EF92FF920F93FF
:100390001F93CF93DF93EC0181E0888F9B8D8C8D31
:1003A00098131AC0E889F989808185FF15C09FB725
:1003B000F894EE89FF896083E889F98980818370E8
:1003C000806480839FBF81E090E0DF91CF911F9197
:1003D0000F91FF90EF900895F62E0B8D10E00F5FB8
:1003E0001F4F0F731127E02E8C8D8E110CC00FB68E
:1003F00007FCFACFE889F989808185FFF5CFCE0126
:100400000E94A301F1CFEB8DEC0FFD2FF11DE35AFC
:10041000FF4FF0829FB7F8940B8FEA89FB898081A8
:100420008062CFCFCF93DF93EC01888D8823B9F022
:10043000AA89BB89E889F9898C9185FD03C08081EF
:1004400086FD0DC00FB607FCF7CF8C9185FFF2CF6C
:10045000808185FFEDCFCE010E94A301E9CFDF911E
:10046000CF91089590E0FC01E055FF4F2491FC01ED
:10047000E456FF4F3491FC01E857FF4FE491EE231F
:10048000C9F0222339F0233001F1A8F4213019F109
:10049000223029F1F0E0EE0FFF1FE258FF4FA59147
:1004A000B4918FB7F894EC91611126C030953E233A
:1004B0003C938FBF08952730A9F02830C9F024302D
:1004C00049F7809180008F7D03C0809180008F77F5
:1004D00080938000DFCF84B58F7784BDDBCF84B578
:1004E0008F7DFBCF8091B0008F778093B000D2CF0B
:1004F0008091B0008F7DF9CF3E2BDACFCF93DF9381
:1005000090E0FC01E456FF4F249188579F4FFC0177
:1005100084918823D1F090E0880F991FFC01EC585A
:10052000FF4FA591B491FC01E258FF4FC591D491C2
:1005300061110EC09FB7F8948C91E22FE0958E2345
:100540008C932881E223E8839FBFDF91CF910895A8
:100550008FB7F894EC91E22BEC938FBFF6CF3FB7B7
:10056000F8948091B2019091B301A091B401B0913F
:10057000B50126B5A89B05C02F3F19F00196A11D16
:10058000B11D3FBFBA2FA92F982F8827BC01CD01DD
:10059000620F711D811D911D42E0660F771F881F3C
:1005A000991F4A95D1F708952FB7F8946091AE013D
:1005B0007091AF018091B0019091B1012FBF08956A
:1005C0008091FE019091FF019827892798274497F1
:1005D00020911C0230E044E0359527954A95E1F7DB
:1005E000220F331F220F331F821B930B97FF02C072
:1005F00090E080E008952091120230911002309333
:1006000012022093100220911302309111023093B4
:10061000130220931102EEEEF1E021A5820F911D4D
:1006200025A585A7662381F021A7892F99273197D2
:1006300021E0EA3EF20789F710922002109221028F
:1006400080E580931C02089511A6EFCF0F931F93AE
:10065000CF93DF9370E062517E4F8A01075F1F4F97
:10066000213029F0223031F48A010250110930E0A2
:1006700020E003C000E010E09801EB01FA01E23055
:10068000F10558F0A991B991BA27AB27BA270A0FFB
:100690001B1F211D311D3297F2CFFA01EE7F6E0F25
:1006A0007F1F4E175F0769F0FB01408150E070E04B
:1006B00060E0762F652F542F4427040F151F261F47
:1006C000371FA90166277727411551056105710577
:1006D00019F022273327F1CF00951095E82FF0E08D
:1006E000E251FE4F10830183DF91CF911F910F9153
:1006F0000895EEEEF1E0108E118E80E4848B158A61
:10070000868B20E044E150E06EE088E10C94260303
:100710008EBD0DB407FEFDCF089561E08091B60156
:100720000E94320278940895F89460E08091B601B6
:100730000C9432020F931F93CF93DF93EC018B0144
:100740000E9494032097B9F08AE30E9488031EBC9C
:10075000F801CE01019739F00DB407FEFDCF2EB59B
:100760001EBC2193F7CF2197C00FD11F0DB407FEF8
:10077000FDCF8EB58883DF91CF911F910F910C949F
:100780008D031F93CF93DF93182FC62FD42F0E9472
:1007900094038C2F8F71812B0E9488038D2F0E94D0
:1007A0008803DF91CF911F910C948D03CF93C82FB5
:1007B000C0768091A9018C1799F043E06FE180EA3F
:1007C0000E94C103C093A9014C2F50E085E05595CC
:1007D00047958A95E1F76FE180E8CF910C94C103CA
:1007E000CF910895CF93DF93C82FD62F0E94D603C1
:1007F0004D2F6C2F80E4DF91CF910C94C103CF93E8
:10080000DF93C82FD72F0E94F2036D2F81E08C0F4A
:10081000DF91CF910C94F203CF93C82F0E94D6039F
:100820000E9494038C2F8F710E94880380E00E94A5
:100830008803C7FF03C080E00E948803CEB50E94F2
:100840008D038C2FCF91089561E184ED0E94F20316
:1008500061E082ED0E94F2038AEE0E940C0480FDAA
:10086000FBCF60E082ED0E94F20389ED0E940C0450
:1008700090E008950F931F93CF93DF9300D000D0A3
:1008800000D0CDB7DEB78091AC01882379F06091BC
:10089000AA017091AB016115710509F053C06FEFAA
:1008A0007BE08CE00E94FF031092AC0189E30E9480
:1008B0000C0410E000E08823C9F16091AA01709156
:1008C000AB0180E00E94FF03BE016F5F7F4F86E0B7
:1008D00090E00E949A0389819A819093AB01809362
:1008E000AA018D819E818C010078112787FF12C09B
:1008F0008B819C8104970091B7011091B801015040
:1009000011098017910708F48C016EEE71E0C8019F
:100910000E949A03F801E251FE4F108281E0809319
:10092000AC0140E46EE180E80E94C103C801269654
:100930000FB6F894DEBF0FBECDBFDF91CF911F91F0
:100940000F91089561507109ACCFCF93DF93EC0103
:1009500040E86FE180E80E94C10340E86FE180EA6F
:100960000E94C1034AE06CE180EA0E94C10360E09A
:100970007CE082E00E94FF03BE01745F86E00E947B
:10098000FF0340E060E08AE70E94C1030E949403F5
:100990002097B1F08AE70E9488038091EE018EBD16
:1009A000EFEEF1E0C251DE4FEC17FD0731F081911F
:1009B0000DB407FEFDCF8EBDF7CF0DB407FEFDCF02
:1009C0000E948D0348E06FE180E80E94C103D0E0FF
:1009D000C0E08CE10E940C048A7029F42196C83E84
:1009E00083E0D807B1F78CE10E940C0481FD03C0BD
:1009F000C83ED34039F448E06FE180EADF91CF91FF
:100A00000C94C103DF91CF9108950F931F93CF935F
:100A1000DF938C018896CEEED1E0988B898B0E9473
:100A200079031AAA1BAAA801445E5F4F22E06AE17B
:100A300082E30E942603C801C696DF91CF911F91E1
:100A40000F910C94A504CF93DF93EB01682F84EDF5
:100A50000E94F203BE0186ED0E94FF038AEE0E940F
:100A60000C0480FDFBCFDF91CF910895CF92DF92F0
:100A7000EF92FF920F931F938634910568F12091B6
:100A80001102233449F5C0901C02D0901D02E09061
:100A90001E02F0901F020091990110919A0120917D
:100AA0009B0130919C01C016D106E206F306A1F429
:100AB000E8E0F3E082519E4F9F012E5F3F4F41815E
:100AC0005081553319F45281651771F0F901E40F23
:100AD000F11DE817F90780F380E01F910F91FF9057
:100AE000EF90DF90CF90089581E0F7CFE0919201F1
:100AF000F09193019F012F5F3F4F3093930120931B
:100B0000920180830895FF920F931F93CF93DF93F9
:100B1000162FF42E052F0E947605812F0E94760550
:100B2000CF2DD02F115020F089910E947605FACF59
:100B3000DF91CF911F910F91FF900895FC010190DB
:100B40000020E9F73197AF01481B590BBC018AEE31
:100B500093E00C942501CF93DF930E949E05EC0156
:100B600080E491E00E949E058C0F9D1FDF91CF9144
:100B700008958F929F92AF92BF92CF92DF92EF92A1
:100B8000FF921F93CF93DF93CDB7DEB7A1970FB638
:100B9000F894DEBF0FBECDBFD62E172F0E949E0544
:100BA000ED2CF12E10E08AE0882E912CA12CB12C96
:100BB000F70121917F0130E050E040E019A26E0181
:100BC000F1E2CF0ED11CCA01B901A50194010E9426
:100BD000930E605DF60162936F01211531054105A9
:100BE000510589F7309719F0CF010E949E05133007
:100BF00029F06EE28AEE93E00E94C5011F5F143077
:100C0000B9F680E491E00E949E05A1960FB6F89493
:100C1000DEBF0FBECDBFDF91CF911F91FF90EF9050
:100C2000DF90CF90BF90AF909F908F900895DC01A0
:100C300096E0FB0101900D929A95E1F70895CF930C
:100C4000DF93EB0144E050E0BC018AE092E00E94B7
:100C5000D50E892B49F464E072E0CE010E9417069C
:100C600081E0DF91CF91089580E0FBCFBC018EEE53
:100C700091E00E94170661EC71E084EF91E00C9422
:100C80001706DC0194E0FB0101900D929A95E1F7C3
:100C900008950F931F93CF938C018AE391E00E94F4
:100CA0003606EEEEF1E088E08487C6E0C58748E0CE
:100CB00050E06CE670E08CEF91E00E948A0EEEE06E
:100CC000F2E0DF011D92CA95E9F761EC71E084E082
:100CD00092E00E941706B80184E192E00E9441066A
:100CE00066EE73E08AE092E00E9441068AE290E0BC
:100CF000CF911F910F910C94A50484EF91E00E9475
:100D0000360668E072E08CE092E00E94410666EEF2
:100D100073E088E092E00E9441060C947903262F4C
:100D2000206120931D02643021F0009711F481E0CE
:100D300090E061E00E94FB021092FE0188E2809345
:100D4000FF010E947D0684E080931E0210921F0224
:100D500022E04CE150E06AE182E30E94260386E350
:100D600090E00C94A504CF93DF93EB010E9436062C
:100D7000BE018CE092E00E94410666EE73E088E0DE
:100D800092E0DF91CF910C944106EF92FF920F9386
:100D90001F93CF93DF938C01EEEEF1E086E191E0BB
:100DA000DF019C011D9221503040E1F78091C0018C
:100DB000CAE3D1E0833011F4C4E9D1E0CE010E944E
:100DC0000501BE01882309F4ACC08BEC91E00E94C0
:100DD000B3068881807F803E91F088819981AA81C5
:100DE000BB818F3F9F4FAF4FBF4F49F044E050E072
:100DF000BE0187EC91E00E94D50E892B31F46AE3A5
:100E000071E08EEE91E00E94170688E08093FA016F
:100E10001092FB0149E050E064EC70E08CEF91E04F
:100E20000E948A0E1092FE0181E1809305021092C9
:100E3000120283E4809313021092100284E48093E0
:100E400011021092140210921602109217026AE315
:100E500071E08EEE91E00E94170681E08093180207
:100E60008093190286E080931A02809199019091F3
:100E70009A01A0919B01B0919C0180931C029093D8
:100E80001D02A0931E02B0931F02C091C001C33087
:100E900031F466EE73E084E292E00E94410661EC78
:100EA00071E084E392E00E94170684E093E090935F
:100EB000930180939201E8E6F0E084910E94760528
:100EC000E9E6F0E084910E947605EAE6F0E084919C
:100ED0000E947605EBE6F0E084910E94760585E3BA
:100EE0000E94760581E00E94760583E0C11101C071
:100EF00081E00E9476058DE30E94760587E00E94DE
:100F0000760581E00E94760581ECE82E81E0F82EDE
:100F1000C7E0C15049F0D7018D917D010E9476054F
:100F2000F8CF81ED91E053CF80910001882371F0DB
:100F300060E071E0FB0101900020E9F7BF01615022
:100F4000714040E051E08CE00E94830501151105DD
:100F500059F0A80164E082E30E94830544E951E06E
:100F600064E086E30E94830587E30E94760583E0C0
:100F70000E94760581E00E94760583E00E94760556
:100F800086E00E9476058FEF0E947605C09192015F
:100F9000D0919301C851D240CE014C969093FE015E
:100FA0008093FF010E947903CE010896909314026A
:100FB00080931502AE01405F5F4F21E06AE188E255
:100FC0000E942603CE018A96DF91CF911F910F9147
:100FD000FF90EF900C94A504CF92DF92EF92FF92D6
:100FE0000F931F93CF93DF9300D000D0CDB7DEB720
:100FF0008C018091C0018230C9F098F4882309F4F3
:101000009CC0813009F4B8C00F900F900F900F90E2
:10101000DF91CF911F910F91FF90EF90DF90CF90D4
:101020000895833009F454C0843071F765E0C80135
:101030000E943605882309F4C7C080919801811168
:1010400008C088E30E940C04682F6E7F88E30E942A
:10105000F20368E272E086EE93E00E944106E8E067
:10106000F3E002511E4F7F0122E0E20EF11CD1801D
:101070008081863009F4FAC008F0BDC0813009F4DF
:10108000EBC0833009F4EEC0F701ED0DF11DE01760
:10109000F10748F30E94D4026093A1017093A2016A
:1010A0008093A3019093A4018091E401882361F0CF
:1010B0001092E9011092E80181E08093EA0164EE68
:1010C00071E0CB010E94410683E08093C0019CCF78
:1010D000C090A501D090A601E090A701F090A801D2
:1010E0002FEFC216D206E206F20609F48DCF0E9457
:1010F000D4020091A1011091A2012091A30130918D
:10110000A401601B710B820B930B6C157D058E0582
:101110009F0508F479CF86EE93E00E94C50684E02F
:101120008093C0010E94D40260939D0170939E0140
:1011300080939F019093A00167CF0E94D402609397
:10114000990170939A0180939B0190939C01E6EE24
:10115000F3E084E0DF011D928A95E9F790E080E0FA
:101160000E94C50688E30E940C04682F616088E332
:101170000E94F20381E0D4CF62E0C8010E943605EC
:10118000882311F168E272E0CE0101960E944106C7
:10119000E8E0F3E002511E4FBF016E5F7F4F818197
:1011A0009081963351F484E991E00E944106CE018A
:1011B00001960E94C50682E0B3CFFB01E80FF11D46
:1011C000E017F10748F3F3CF0E94D40200919D018C
:1011D00010919E0120919F013091A001601B710B25
:1011E000820B930B613177428105910508F40CCF96
:1011F0001092C00109CF8A3331F08F3F09F44ACFF2
:10120000833309F041CF1092A5011092A6011092EC
:10121000A7011092A801F701C701049620E030E071
:10122000A9016191542F432F322F2227260F311D00
:10123000411D511D8E179F07A1F72F3F8FEF3807D4
:1012400048075807B9F42093A5013093A6014093AD
:10125000A7015093A80118CFB70182EE93E00E9436
:10126000410612CFB70184EE91E0F9CFB7018FEDBF
:1012700091E0F5CFA8EEB3E00E94B50E6093A50112
:101280007093A6018093A7019093A801FDCE1F92B1
:101290000F920FB60F9211242F933F934F935F93AA
:1012A0006F937F938F939F93AF93BF93EF93FF932E
:1012B0008AEE93E00E94A301FF91EF91BF91AF915D
:1012C0009F918F917F916F915F914F913F912F915E
:1012D0000F900FBE0F901F9018951F920F920FB690
:1012E0000F9211242F938F939F93EF93FF93E0918D
:1012F000FA03F091FB038081E0910004F091010476
:1013000082FD1BC09081809103048F5F8F732091B9
:101310000404821741F0E0910304F0E0E651FC4F31
:10132000958F80930304FF91EF919F918F912F915F
:101330000F900FBE0F901F9018958081F4CF1F92D1
:101340000F920FB60F9211242F933F938F939F9379
:10135000AF93BF938091AE019091AF01A091B00186
:10136000B091B1013091AD0123E0230F2D3758F535
:101370000196A11DB11D2093AD018093AE01909304
:10138000AF01A093B001B093B1018091B2019091EF
:10139000B301A091B401B091B5010196A11DB11D99
:1013A0008093B2019093B301A093B401B093B501BF
:1013B000BF91AF919F918F913F912F910F900FBE51
:1013C0000F901F90189526E8230F0296A11DB11DBE
:1013D000D2CF789484B5826084BD84B5816084BDA9
:1013E00085B5826085BD85B5816085BD80916E00C3
:1013F000816080936E0010928100809181008260F4
:101400008093810080918100816080938100809130
:1014100080008160809380008091B100846080931F
:10142000B1008091B00081608093B00080917A001B
:10143000846080937A0080917A00826080937A0041
:1014400080917A00816080937A0080917A00806830
:1014500080937A001092C100E091FA03F091FB03AF
:1014600082E08083E091F603F091F7031082E0912F
:10147000F803F091F9038FEC808310920204E0915D
:10148000FE03F091FF0386E08083E091FC03F0917E
:10149000FD03808180618083E091FC03F091FD0376
:1014A000808188608083E091FC03F091FD0380815E
:1014B00080688083E091FC03F091FD0380818F7D43
:1014C000808383E491E00E94AB051092EB0187E3F7
:1014D00090E0C12CD12C7601C3940097C1F0FC019F
:1014E00043E0F595E7954A95E1F7E754FE4F282F3D
:1014F0002770B701A60104C0440F551F661F771F50
:101500002A95D2F72081242B20830197E6CF60E231
:1015100071E081EC91E00E94170684EF91E09093D6
:10152000B8018093B7010CB406FC25C061E08AE0E5
:101530000E947E0261E08AE00E94320261E08BE05C
:101540000E947E0261E08DE00E947E0260E08CE0FD
:101550000E947E0261E08BE00E94320260E08BE03C
:101560000E94320260E08DE00E94320280E58CBD74
:101570008DB581608DBD8AE08093B60161E00E94E7
:101580007E020E948D034FEF60E08FEF0E94C10347
:101590000E94AF026B017C0132E0832E912CA12CC2
:1015A000B12C0E94AF026C197D098E099F09683E1B
:1015B000734081059105A8F328EEC20E23E0D21EE8
:1015C000E11CF11C8A9489288A288B2829F0812C17
:1015D000912C54018394E5CF0E9494038DE10E94E5
:1015E000880380E00E948803CEB50E948D03CC233F
:1015F00099F370E060E088E00E94FF0370E060E033
:101600008CE00E94FF036FEF7BE08AE00E94FF0303
:1016100060E07CE084E00E94FF036FEF71E186E010
:101620000E94FF0366E774E084E10E94230561EBFA
:1016300088E30E94F2036FE370E388E20E94FF03F5
:1016400069EF77EF80E30E94FF0361E080EC0E9486
:10165000F20342E362EC80E80E94C10362E17CE0B5
:1016600086EC0E94FF0362E184EC0E94F2036CEDC1
:1016700075E08AEC0E94FF036091C10184EE0E9434
:10168000F2036091C20185EE0E94F2036091C301F2
:1016900082EE0E94F2036091C40183EE0E94F20385
:1016A0006091C50180EE0E94F2036091C60181EE57
:1016B0000E94F20360E071E080E10E9423058FE167
:1016C0000E94D60340EC6BE180E80E94C10344E035
:1016D0006FE180E80E94C10382E70E940C0486301B
:1016E00008F08F5F811104C08FE491E00E94AB0588
:1016F00081E08093EB018091C601282F30E094E0D7
:10170000359527959A95E1F7E0E0F1E0019000200A
:10171000E9F7E350F14090E32A300CF097E3E05012
:10172000FF4F920F9083E0E0F1E001900020E9F795
:10173000E250F1408F7090E38A300CF097E3890F0C
:10174000E050FF4F80831092C0010E94D402EB0151
:101750001091C001133041F00E94D4026C1B7D0B2C
:1017600060367A4E08F413C1E6EEF3E0C2EED3E041
:10177000A7ECB1E02AEE33E0919189918095892B15
:101780008D932E173F07C1F71092E9011092E801DF
:10179000133021F084E791E00E94AB0566EE73E020
:1017A00080E891E00E94B90564EE71E086E891E07E
:1017B0000E94B9056FED71E08CE891E00E94B905D7
:1017C000F0E0CF2EF0E0DF2EA9E16A2EBCE29B2EE6
:1017D000C2E15C2E12E0D4E08D2E05E0F02E40E652
:1017E000E42E58E7352E66E0B62E01E078E1772E3C
:1017F000E3E0AE2E0E943A04EC018091EB018823D5
:1018000019F0CE010E94EC07209709F0CCC080911E
:10181000EA01857099F08091E8019091E901892BA6
:1018200069F40E94240482FF09C084EE91E00E94C2
:1018300049068091EA0188608093EA018091E8017D
:101840009091E90101969093E9018093E8018091DC
:10185000E301813009F067C08091EA0181FF63C034
:101860001093E301809127018F5F80932701C82F98
:10187000CF7189ED91E00E94050169ED71E0882347
:1018800009F48EC08BEC91E00E94B306D8E0D093AF
:10189000FA011092FB0149E050E064EC70E08CEF3B
:1018A00091E00E948A0E9092FF01B09205020E9480
:1018B000790310921202109213028BE080931002AF
:1018C000C0931102E4E1F2E0DF011D92DA95E9F73D
:1018D00080912601809316028D5F80932601E0920D
:1018E0001C0210931D02A0921E0210921F02109261
:1018F00020021092210210922202109223021093D1
:101900002402809225021093260286E28093270209
:1019100022E040E250E06AE182E30E9426038AE38B
:1019200090E00E94A5048FED91E00E9405018823BC
:1019300071F08091DE0181110AC08091DD01811179
:1019400006C08FED91E00E9449060093DD0189ED0C
:1019500091E00E940501882371F08091D8018111E6
:101960000AC08091D701811106C089ED91E00E94E3
:1019700049060093D701C114D10409F43BCF0E945A
:101980008F01882309F42BCF0E94000028CF0E94EA
:10199000240482FFDDCE0E943A040E94EC07D8CED8
:1019A00081ED91E071CFC932D10528F38091FA0120
:1019B000883009F78091FB01863009F036C144E098
:1019C00050E066EE73E084E192E00E94D50E892B30
:1019D00091F680910302813021F584EF91E00E941D
:1019E0003606109202021093030264E072E08EE069
:1019F00092E00E94170661EC71E084E092E00E94A0
:101A000017066AE072E084E192E00E94410666EE09
:101A100073E08AE092E00E9441068AE290E00E9430
:101A2000A5048091EA0183FF0DC0C0910302C2307A
:101A300049F461ED71E084EE91E00E941F0681118E
:101A4000C093EA018091DE01811110C08091DD0117
:101A5000882361F06BEC71E08FED91E00E941F062E
:101A6000882321F00093DE011092DD018091D801DE
:101A7000811181CF8091D701882309F47CCF6BEC51
:101A800071E089ED91E00E941F06882309F473CF6D
:101A90000093D8011092D7016ECFC633D10508F458
:101AA0006ACF863009F067CF809112028B3009F03F
:101AB0004AC044E050E069ED71E088E092E00E94A5
:101AC000D50E892B09F057CFC0911D02C2FF03C06C
:101AD000F092E30150CF0E94E0022091E301223016
:101AE000F1F42C2F2071C271C23171F460E090E0EA
:101AF00080E00E948F0670921D02A092E30190E0A8
:101B000080E00E94050537CF0093E3010196222370
:101B100011F090E080E064E00E948F062CCF253029
:101B200009F429CFC0FF0AC0233009F424CF69E0AB
:101B300001960E948F06B092E3011DCF60E00097EE
:101B400009F419CFE9CF811116CF809113028035A6
:101B500009F011CF40901D0241FE32C01092FE01EB
:101B60009092FF010E947D0650921D0260E081E08C
:101B700090E00E94FB0210921402109215028091D4
:101B8000260180931602109217028D5F8093260122
:101B90001093240280922502F092260210922702CE
:101BA000E0921C02F0921E0230921F0222E040E2FC
:101BB00050E06AE182E30E9426038AE390E07AC063
:101BC00044FED9CE0E94E0029093ED018093EC0197
:101BD000892B29F180911C0290E024E0959587954E
:101BE0002A95E1F7880F991F880F991F8296C817C9
:101BF000D90708F4C0CE46EE50E06DEC70E084E208
:101C000092E00E948A0E60E08091EC019091ED01DB
:101C10000E948F0660921D0285EE90E072CF40FE1A
:101C2000AACE60E090E080E077CFC932D10509F418
:101C3000A2CE8111A0CE8091FC01853409F09BCE0B
:101C400044E050E066EE73E08CE092E00E94D50E36
:101C5000892BA9F044E050E067EC71E08CE092E061
:101C60000E94D50E892B59F044E050E06AE371E000
:101C70008CE092E00E94D50E892B09F07CCE8091F9
:101C80000502813009F009CF80911002883009F0F7
:101C900072CE0E947D061092100280911202883F3F
:101CA00028F0909113029F5F90931302885F8093B6
:101CB0001202CE010E94A5045ECEEAEEF3E013828A
:101CC000128288EE93E0A0E0B0E084839583A6833F
:101CD000B7838CE291E09183808385EC90E09587D7
:101CE000848784EC90E09787868780EC90E0918BE6
:101CF000808B81EC90E0938B828B82EC90E0958BD3
:101D0000848B86EC90E0978B868B118E128E138ECF
:101D1000148E0895FB01DC0102C005900D92415024
:101D20005040D8F70895A1E21A2EAA1BBB1BFD0153
:101D30000DC0AA1FBB1FEE1FFF1FA217B307E407AA
:101D4000F50720F0A21BB30BE40BF50B661F771F02
:101D5000881F991F1A9469F76095709580959095E2
:101D60009B01AC01BD01CF0108950E94C60EA59F45
:101D7000900DB49F900DA49F800D911D1124089586
:101D8000EE0FFF1F0590F491E02D0994A29FB00182
:101D9000B39FC001A39F700D811D1124911DB29F9F
:101DA000700D811D1124911D0895FB01DC0104C0FB
:101DB0008D910190801921F441505040C8F7881B43
:101DC000990B0895F894FFCF41726475696E6F2D79
:101DD000454E4332386A36302D3030000000000066
:101DE00000000000000000007469692D30310A0114
:101DF00000000000C50125015201120283016101AA
:101E00007501FFFFFFFFFFFF0D0A000A5B626163C0
:101E10006B536F6F6E5D004661696C656420746F13
:101E2000206163636573732045746865726E6574C1
:101E300020636F6E74726F6C6C657200444843501F
:101E4000206661696C65640049503A20200047575C
:0A1E50003A202000444E533A2000CF
:107E0000112484B714BE81FFF0D085E080938100F7
:107E100082E08093C00088E18093C10086E0809377
:107E2000C20080E18093C4008EE0C9D0259A86E02C
:107E300020E33CEF91E0309385002093840096BBD3
:107E4000B09BFECF1D9AA8958150A9F7CC24DD24C4
:107E500088248394B5E0AB2EA1E19A2EF3E0BF2EE7
:107E6000A2D0813461F49FD0082FAFD0023811F036
:107E7000013811F484E001C083E08DD089C08234E0
:107E800011F484E103C0853419F485E0A6D080C0E4
:107E9000853579F488D0E82EFF2485D0082F10E0AE
:107EA000102F00270E291F29000F111F8ED06801E7
:107EB0006FC0863521F484E090D080E0DECF843638
:107EC00009F040C070D06FD0082F6DD080E0C81688
:107ED00080E7D80618F4F601B7BEE895C0E0D1E017
:107EE00062D089930C17E1F7F0E0CF16F0E7DF06D8
:107EF00018F0F601B7BEE89568D007B600FCFDCFD4
:107F0000A601A0E0B1E02C9130E011968C91119780
:107F100090E0982F8827822B932B1296FA010C0160
:107F200087BEE89511244E5F5F4FF1E0A038BF0790
:107F300051F7F601A7BEE89507B600FCFDCF97BE46
:107F4000E89526C08437B1F42ED02DD0F82E2BD052
:107F50003CD0F601EF2C8F010F5F1F4F84911BD097
:107F6000EA94F801C1F70894C11CD11CFA94CF0C13
:107F7000D11C0EC0853739F428D08EE10CD085E9AC
:107F80000AD08FE07ACF813511F488E018D01DD067
:107F900080E101D065CF982F8091C00085FFFCCF94
:107FA0009093C60008958091C00087FFFCCF809118
:107FB000C00084FD01C0A8958091C6000895E0E648
:107FC000F0E098E1908380830895EDDF803219F02E
:107FD00088E0F5DFFFCF84E1DECF1F93182FE3DFCA
:107FE0001150E9F7F2DF1F91089580E0E8DFEE27F6
:047FF000FF270994CA
:027FFE00040479
:00000001FF
